:100000000C948D000C94F8040C94D1040C94B5005D
:100010000C94B5000C94B5000C94B5000C94B5008C
:100020000C94B5000C94B5000C94B5000C94B5007C
:100030000C94B5000C94B5000C94B5000C94B5006C
:100040000C9487040C94B5000C9445050C941F0582
:100050000C94B5000C94B5000C94B5000C94B5004C
:100060000C94B5000C94B5005374617274757000F3
:1000700053776974636820004D616E5F53746570D7
:100080003A20004465636F646520476F3252756E95
:10009000004465636F646520476F3253746F70006E
:1000A00044656332204F4B0044656331204F4B0061
:1000B000636C6561720020527820005420000000BB
:1000C0000000240027002A0000000000250028006E
:1000D0002B00000000002300260029000404040473
:1000E00004040404020202020202030303030303E2
:1000F00001020408102040800102040810200102BF
:10010000040810200000000800020100000304079A
:1001100000000000000000005D0811241FBECFEFAA
:10012000D8E0DEBFCDBF11E0A0E0B1E0E6ECF1E148
:1001300002C005900D92A036B107D9F722E0A0E6E3
:10014000B1E001C01D92A234B207E1F710E0CDE8A2
:10015000D0E004C02197FE010E94C708CC38D10727
:10016000C9F70E9477050C94E1080C9400000F93E6
:100170001F93CF93DF938C01C0E0D0E0F801EC0F28
:10018000FD1F6491662371F0E091A501F091A60135
:100190000190F081E02D85EA91E00995892B11F01D
:1001A0002196ECCFCE01DF91CF911F910F91089551
:1001B000833081F028F4813099F08230A1F00895E5
:1001C0008730A9F08830B9F08430D1F48091800074
:1001D0008F7D03C0809180008F7780938000089589
:1001E00084B58F7702C084B58F7D84BD08958091DA
:1001F000B0008F7703C08091B0008F7D8093B000F6
:100200000895CF93DF93282F30E0F901EC5FFE4F84
:100210008491F901E051FF4FD491F901E452FF4F6D
:10022000C491CC2391F081110E94D800EC2FF0E012
:10023000EE0FFF1FEE52FF4FA591B491EC91ED230D
:1002400081E090E021F480E002C080E090E0DF9166
:10025000CF9108951F93CF93DF93282F30E0F901BA
:10026000EC5FFE4F8491F901E051FF4FD491F90109
:10027000E452FF4FC491CC23C9F0162F81110E9484
:10028000D800EC2FF0E0EE0FFF1FE853FF4FA591D1
:10029000B4918FB7F894111105C09C91ED2FE095A2
:1002A000E92302C0EC91ED2BEC938FBFDF91CF914E
:1002B0001F910895CF93DF9390E0FC01E051FF4F31
:1002C0002491FC01E452FF4F8491882361F190E076
:1002D000880F991FFC01E254FF4FC591D491FC0196
:1002E000E853FF4FA591B491611109C09FB7F894ED
:1002F0008881209582238883EC912E230BC0623065
:1003000061F49FB7F8943881822F80958323888386
:10031000EC912E2B2C939FBF06C08FB7F894E881E9
:100320002E2B28838FBFDF91CF9108953FB7F8948C
:100330008091A1019091A201A091A301B091A4018B
:1003400026B5A89B05C02F3F19F00196A11DB11D30
:100350003FBFBA2FA92F982F8827820F911DA11D6B
:10036000B11DBC01CD0142E0660F771F881F991FA8
:100370004A95D1F708958F929F92AF92BF92CF92F4
:10038000DF92EF92FF920E9496014B015C018AE09E
:10039000C82ED12CE12CF12C0E949601DC01CB015E
:1003A00088199909AA09BB09883E9340A105B1059E
:1003B00058F021E0C21AD108E108F10888EE880E51
:1003C00083E0981EA11CB11CC114D104E104F10406
:1003D00019F7FF90EF90DF90CF90BF90AF909F9074
:1003E0008F9008950895CF92DF92EF92FF920F932E
:1003F0001F93CF93DF936C017A018B01C0E0D0E0B3
:10040000CE15DF0589F0D8016D918D01D601ED91F2
:10041000FC910190F081E02DC6010995892B11F422
:100420007E0102C02196ECCFC701DF91CF911F91D1
:100430000F91FF90EF90DF90CF900895089580E0A6
:1004400090E00895FC01538D448D252F30E0842FDA
:1004500090E0821B930B541710F0CF9608950197EC
:100460000895FC01918D828D981761F0828DDF01D6
:10047000A80FB11D5D968C91928D9F5F9F73928F97
:1004800090E008958FEF9FEF0895FC01918D828D8C
:10049000981731F0828DE80FF11D858D90E0089559
:1004A0008FEF9FEF0895FC01918D228D892F90E0B1
:1004B000805C9F4F821B91098F739927089585EA6D
:1004C00091E00E94530221E0892B09F420E0822F61
:1004D0000895FC01848DDF01A80FB11DA35ABF4F01
:1004E0002C91848D90E001968F739927848FA68933
:1004F000B7892C93A089B1898C9180648C93938D5A
:10050000848D981306C00288F389E02D80818F7D49
:1005100080830895EF92FF920F931F93CF93DF9301
:10052000EC0181E0888F9B8D8C8D981305C0E88944
:10053000F989808185FD24C0F62E0B8D10E00F5FB8
:100540001F4F0F731127E02E8C8DE8120CC00FB6D1
:1005500007FCFACFE889F989808185FFF5CFCE01C4
:100560000E946902F1CF8B8DFE01E80FF11DE35A65
:10057000FF4FF0820B8FEA89FB898081806207C080
:10058000EE89FF896083E889F989808180648083AE
:1005900081E090E0DF91CF911F910F91FF90EF905C
:1005A0000895CF93DF93EC01888D8823C9F0EA8901
:1005B000FB89808185FD05C0A889B9898C9186FD5C
:1005C0000FC00FB607FCF5CF808185FFF2CFA88959
:1005D000B9898C9185FFEDCFCE010E946902E7CFEA
:1005E000DF91CF91089580E090E0892B29F00E945F
:1005F0005F0281110C9400000895CF92DF92EF9278
:10060000FF92CF93CFB7F89480916A01882369F164
:10061000C0906B01D0906C01E0906D01F0906E0184
:100620000E949601DC01CB018C199D09AE09BF091E
:100630008F3F9F43A105B105C0F080916A018230D0
:1006400090F080916A01815080936A0110920101BB
:1006500010920001C0926F01D0927001E09271017E
:10066000F092720102C010926A01CFBF8FB7F89466
:1006700020910001309101018FBF81E0232B09F00F
:1006800080E0CF91FF90EF90DF90CF900895813080
:10069000910561F024F4892BD1F460E019C0823017
:1006A000910531F0039799F461E00CC060E00AC055
:1006B00061E086E00E942A0161E087E00E942A0151
:1006C00060E00EC086E00E942A0160E005C061E0A3
:1006D00086E00E942A0161E087E00E942A0161E031
:1006E00088E00C942A018F929F92AF92BF92CF9292
:1006F000DF92EF92FF928091000190910101892B8E
:1007000009F499C00E9496014B015C0180916B0134
:1007100090916C01A0916D01B0916E017501640121
:10072000C81AD90AEA0AFB0A80926B0190926C01FE
:10073000A0926D01B0926E01C114D10481E0E8066F
:10074000F10438F48FEFC8168FE3D806E104F10402
:10075000A8F080916A01811106C080916A018F5FC3
:1007600080936A0168C080916A01813009F463C096
:1007700080916A01815080936A014CC080916A0126
:10078000882309F458C080916A018230D0F1209109
:10079000000130910101C901880F991F820F931F39
:1007A0009695879596958795C816D90670F0C601D7
:1007B000880F991F8C0D9D1D969587959695879509
:1007C0002817390720F4E2E003C0E0E001C0E1E0CF
:1007D00020910201309103014091040150910501E3
:1007E00063E971E080E091E00E948A08DC01CB01BE
:1007F0008E278093020190930301A0930401B0938C
:10080000050180916A018F5F80936A0180916A017E
:100810008F3F69F4109201011092000180926F01E4
:1008200090927001A0927101B092720104C0D092B6
:100830000101C0920001FF90EF90DF90CF90BF9038
:10084000AF909F908F900895009769F0FC01019000
:100850000020E9F73197AF01481B590BBC0185EA2D
:1008600091E00C94F30180E090E008958F929F92C4
:10087000AF92BF920F931F93CF93DF93CDB7DEB7A5
:10088000A1970FB6F894DEBF0FBECDBF19A24230BC
:1008900008F44AE08E010F5D1F4F842E912CA12C8D
:1008A000B12CA50194010E949A08E62FB901CA0152
:1008B00001501109EA3014F4E05D01C0E95CD8018F
:1008C000EC93232B242B252B61F7C8010E942404D1
:1008D000A1960FB6F894DEBF0FBECDBFDF91CF91CA
:1008E0001F910F91BF90AF909F908F900895CF93DD
:1008F000DF930E94B700EC018CE591E00E94240494
:100900008C0F9D1FDF91CF9108950E94DC081F92EC
:100910000F920FB60F9211242F933F938F939F93B3
:10092000AF93BF9380919D0190919E01A0919F01F3
:10093000B091A00130919C0123E0230F2D3720F4CA
:100940000196A11DB11D05C026E8230F0296A11D29
:10095000B11D20939C0180939D0190939E01A093D3
:100960009F01B093A0018091A1019091A201A0915B
:10097000A301B091A4010196A11DB11D8093A10115
:100980009093A201A093A301B093A401BF91AF9152
:100990009F918F913F912F910F900FBE0F901F90BD
:1009A00018951F920F920FB60F9211242F933F9319
:1009B0004F935F936F937F938F939F93AF93BF9367
:1009C000EF93FF93E0910801F09109010995FF91E0
:1009D000EF91BF91AF919F918F917F916F915F91B7
:1009E0004F913F912F910F900FBE0F901F90189530
:1009F0001F920F920FB60F9211242F933F934F9394
:100A00005F936F937F938F939F93AF93BF93EF9376
:100A1000FF93E0910601F09107010995FF91EF9195
:100A2000BF91AF919F918F917F916F915F914F9106
:100A30003F912F910F900FBE0F901F9018951F920E
:100A40000F920FB60F9211242F933F934F935F9302
:100A50006F937F938F939F93AF93BF93EF93FF9386
:100A600085EA91E00E946902FF91EF91BF91AF91F9
:100A70009F918F917F916F915F914F913F912F91B6
:100A80000F900FBE0F901F9018951F920F920FB6E8
:100A90000F9211242F938F939F93EF93FF93E091E5
:100AA000B501F091B6018081E091BB01F091BC01EC
:100AB00082FD12C090818091BE018F5F8F73209163
:100AC000BF01821751F0E091BE01F0E0EB55FE4FFF
:100AD000958F8093BE0101C08081FF91EF919F911E
:100AE0008F912F910F900FBE0F901F9018957894B3
:100AF00084B5826084BD84B5816084BD85B5826023
:100B000085BD85B5816085BD80916E0081608093D3
:100B10006E0010928100809181008260809381003C
:100B2000809181008160809381008091800081604C
:100B3000809380008091B10084608093B1008091A7
:100B4000B00081608093B00080917A0084608093CF
:100B50007A0080917A00826080937A0080917A0096
:100B6000816080937A0080917A00806880937A0017
:100B70001092C100E091B501F091B60182E080834E
:100B8000E091B101F091B2011082E091B301F091D6
:100B9000B40180E180831092BD01E091B901F09130
:100BA000BA0186E08083E091B701F091B8018081BD
:100BB00080618083E091B701F091B8018081886005
:100BC0008083E091B701F091B801808180688083D3
:100BD000E091B701F091B80180818F7D808388E634
:100BE00090E00E94770461E086E00E945A0161E093
:100BF00087E00E945A0161E088E00E945A0161E0AA
:100C00008DE00E945A0162E08CE00E945A0160E08F
:100C10008AE00E945A0160E08DE00E942A0184E08F
:100C200090E00E94470361E08DE00E942A0124E0E9
:100C3000222E312C35EC432E3DE9532E3CE1632E20
:100C400031E8732EAA24AA94BA2C52EF852E51E0D3
:100C5000952E8CE00E940101EC018091670190913A
:100C60006801C817D907B9F180E790E00E94B70082
:100C70006E010D2E000CEE08FF08F7FE14C0E09187
:100C8000A501F091A6010190F081E02D6DE285EAC9
:100C900091E0099566277727CB016C197D098E09AC
:100CA0009F094AE003C04AE0C701B6010E9436042A
:100CB0008CE591E00E942404209719F483E090E0F1
:100CC00002C081E090E090939B0180939A01D093C1
:100CD0006801C093670180919A0190919B018130D6
:100CE000910509F453C01CF4892BB1F0E3C18230A3
:100CF000910509F463C0039709F0DCC160E082E06C
:100D00000E945A01E8989092070180920601109281
:100D10009B0110929A01CCC18AE00E940101C1E0BE
:100D2000892B09F4C0E080919901C81709F4C2C168
:100D3000CC2329F180916901833020F48F5F809367
:100D4000690102C0109269018091690190E00E94DE
:100D5000470388E790E00E94B7006091690170E066
:100D600080E090E04AE00E9436048CE591E00E9429
:100D700024048BEB90E00E94B70061E001C060E0CA
:100D80008DE00E942A01C093990194C162E082E043
:100D90000E945A0183E793E0909307018093060134
:100DA000809169008C7F816080936900E89A82E07D
:100DB00090E090939B0180939A017AC10E94FD027A
:100DC000882309F458C061E08DE00E942A01CFB762
:100DD000F8940E94FD0281112BC0C12CD12C760108
:100DE000CFBF60917B0194E0699FF0011124E55829
:100DF000FE4FC282D382E482F58270E080E090E010
:100E00004AE00E94360486EB90E00E94B70040E181
:100E1000C701B6010E9436048CE591E00E942404CB
:100E200080917B01873038F58F5F80937B0123C0F1
:100E30000E94960160936B0170936C0180936D0129
:100E400090936E0180916A01C0900201D0900301DD
:100E5000E0900401F09005014092020150920301DC
:100E60006092040170920501B0920101A09200010C
:100E700010926A01B5CF8FB7F894C0906F01D090EF
:100E80007001E0907101F09072018FBF0E94960195
:100E9000DC01CB018C199D09AE09BF0981319B4E44
:100EA000A940B10508F487C060E08DE00E942A01E6
:100EB00080917B01882309F47EC0CCE1D1E0E12C54
:100EC000F12C00E010E080917D0190917E01A091D5
:100ED0007F01B0918001488159816A817B818417AB
:100EE0009507A607B70749F0488559856A857B8528
:100EF00084179507A607B707A9F588EA90E00E942E
:100F000077048091810190918201A0918301B09139
:100F100084014C815D816E817F8184179507A607CE
:100F2000B70749F04C855D856E857F8584179507E9
:100F3000A607B707B9F480EA90E00E947704C801D9
:100F40008D7F892B41F481E990E00E947704EE24A3
:100F5000E394F12C07C083E890E00E94770482E0DC
:100F6000E82EF12C0F5F1F4F60960430110509F039
:100F7000AACFF0927A01E0927901E0917B016FEFC4
:100F80006E0F60937B0184E0E89FF0011124E55827
:100F9000FE4F128213821482158270E080E090E08E
:100FA0004AE00E94360480917B018111E6CF80EBFC
:100FB00090E00E9477048FB7F89440919D01509182
:100FC0009E0160919F017091A0018FBFC091790136
:100FD000D0917A01C230D105C1F11CF4219749F0BA
:100FE00069C0C330D10509F449C0C430D105C9F086
:100FF00061C08091770190917801049709F45AC0FB
:10100000409373015093740160937501709376015E
:1010100083E090E00E94470330927A0120927901A8
:1010200049C08091730190917401A0917501B091B4
:10103000760188519C4FAF4FBF4F84179507A60785
:10104000B707C0F580E090E02CC0809177019091C7
:101050007801039779F14093730150937401609381
:1010600075017093760181E090E00E94470383E070
:1010700090E090937A01809379011CC08091730174
:1010800090917401A0917501B091760188519C4FA7
:10109000AF4FBF4F84179507A607B70758F482E0F4
:1010A00090E00E944703D0937801C093770102C07B
:1010B0000E94BB010E94F302CCCDE5EAF1E013826D
:1010C000128288EE93E0A0E0B0E084839583A6834B
:1010D000B7838EE091E09183808385EC90E09587E3
:1010E000848784EC90E09787868780EC90E0918BF2
:1010F000808B81EC90E0938B828B82EC90E0958BDF
:10110000848B86EC90E0978B868B118E128E138EDB
:10111000148E0895DB018F939F930E94BC08BF91AA
:10112000AF91A29F800D911DA39F900DB29F900D36
:1011300011240895A1E21A2EAA1BBB1BFD010DC0AC
:10114000AA1FBB1FEE1FFF1FA217B307E407F50777
:1011500020F0A21BB30BE40BF50B661F771F881F53
:10116000991F1A9469F760957095809590959B01E9
:10117000AC01BD01CF0108950E94CD08A59F900D3F
:10118000B49F900DA49F800D911D11240895EE0F22
:10119000FF1F0590F491E02D0994A29FB001B39F29
:1011A000C001A39F700D811D1124911DB29F700D70
:1011B000811D1124911D089581E090E0F8940C9414
:0611C000E108F894FFCFE6
:1011C600FFFFC59D1C81F201F201000000008A02AA
:1011D600F3012202D1025302310245027A31EFC4F1
:1011E6007A6AB8337A02B1907A3B7AFF7A31EFC4E1
:1011F6007A31EFC47A02B1907A02B1907ACA4C364B
:101206007A6AB8337A9B0E027A3B7AFF7ACA4C36F0
:101216007ACA4C367A9B0E027A9B0E020D0A0000A1
:00000001FF
