:100000000C9461000C94EF030C94C8030C947E00D4
:100010000C947E000C947E000C947E000C947E0068
:100020000C947E000C947E000C947E000C947E0058
:100030000C947E000C947E000C947E000C947E0048
:100040000C947E030C947E000C947E000C947E0035
:100050000C947E000C947E000C947E000C947E0028
:100060000C947E000C947E00000000002400270009
:100070002A0000000000250028002B0000000000DE
:1000800023002600290004040404040404040202DA
:100090000202020203030303030301020408102007
:1000A0004080010204081020010204081020000012
:1000B0000008000201000003040700000000000027
:1000C000000011241FBECFEFD8E0DEBFCDBF11E08E
:1000D000A0E0B1E0E6E2FEE002C005900D92AC3592
:1000E000B107D9F721E0ACE5B1E001C01D92A2381B
:1000F000B207E1F70E9416040C9411070C9400005B
:10010000833081F028F4813099F08230A1F0089595
:100110008730A9F08830B9F08430D1F48091800024
:100120008F7D03C0809180008F7780938000089539
:1001300084B58F7702C084B58F7D84BD089580918A
:10014000B0008F7703C08091B0008F7D8093B000A6
:100150000895CF93DF93282F30E0F901E255FF4F48
:100160008491F901E656FF4FD491F901EA57FF4F08
:10017000C491CC2391F081110E948000EC2FF0E01B
:10018000EE0FFF1FE458FF4FA591B491EC91ED23C2
:1001900081E090E021F480E002C080E090E0DF9117
:1001A000CF9108951F93CF93DF93282F30E0F9016B
:1001B000E255FF4F8491F901E656FF4FD491F901C2
:1001C000EA57FF4FC491CC23C9F0162F81110E942A
:1001D0008000EC2FF0E0EE0FFF1FEE58FF4FA591CF
:1001E000B4918FB7F894111105C09C91ED2FE09553
:1001F000E92302C0EC91ED2BEC938FBFDF91CF91FF
:100200001F910895CF93DF9390E0FC01E656FF4FD6
:100210002491FC01EA57FF4F8491882361F190E01B
:10022000880F991FFC01E859FF4FC591D491FC013B
:10023000EE58FF4FA591B491611109C09FB7F89492
:100240008881209582238883EC912E230BC0623015
:1002500061F49FB7F8943881822F80958323888337
:10026000EC912E2B2C939FBF06C08FB7F894E8819A
:100270002E2B28838FBFDF91CF9108953FB7F8943D
:1002800080917E0190917F01A0918001B0918101C8
:1002900026B5A89B05C02F3F19F00196A11DB11DE1
:1002A0003FBFBA2FA92F982F8827820F911DA11D1C
:1002B000B11DBC01CD0142E0660F771F881F991F59
:1002C0004A95D1F708958F929F92AF92BF92CF92A5
:1002D000DF92EF92FF926B017C010E943E014B0185
:1002E0005C01C114D104E104F104F1F00E943E016B
:1002F000DC01CB0188199909AA09BB09883E934002
:10030000A105B10570F321E0C21AD108E108F10896
:1003100088EE880E83E0981EA11CB11CC114D10484
:10032000E104F10419F7DDCFFF90EF90DF90CF905B
:10033000BF90AF909F908F9008952FB7F8946091E1
:100340007A0170917B0180917C0190917D012FBF9A
:1003500008950895CF92DF92EF92FF92CF93CFB797
:10036000F89480916901882369F1C0906A01D09066
:100370006B01E0906C01F0906D010E943E01DC0188
:10038000CB018C199D09AE09BF098F3F9F43A10581
:10039000B105C0F080916901823090F080916901CF
:1003A0008150809369011092220110922101C09224
:1003B0006E01D0926F01E0927001F092710102C063
:1003C00010926901CFBF8FB7F8942091210130912D
:1003D00022018FBF81E0232B09F080E0CF91FF90B5
:1003E000EF90DF90CF900895CF93DF9385E00E9448
:1003F000A900EC010E949D01AB01BC0180915E014E
:1004000090915F01A0916001B09161018C509E4F6D
:10041000AF4FBF4F84179507A607B70708F04EC028
:10042000E0915C01F0915D018091200120E4829FC8
:10043000C001112480937C0080917A0080648093B5
:100440007A0080917A0086FDFCCF2091780080911F
:100450007900EE0FFF1FEE5FFE4F30E0382B318347
:10046000208380915C0190915D018F30910534F47F
:10047000019690935D0180935C0104C010925D0130
:1004800010925C0140935E0150935F0160936001A4
:1004900070936101E2E0F1E080E090E02191319120
:1004A000820F931F21E0E032F207C1F76FE070E0A6
:1004B0000E94CF06709301016093000180910001BA
:1004C000909101018335934070F080916201909189
:1004D0006301C817D90771F4809177019091780171
:1004E0000497B9F407C084E090E09093780180937A
:1004F00077010FC0209719F483E090E002C081E0FB
:1005000090E09093780180937701D0936301C0933A
:100510006201DF91CF910895CF93DF93EC01809139
:10052000770190917801049751F00E949D016093AA
:100530006401709365018093660190936701C130F7
:10054000D10561F024F4CD2BD1F460E019C0C230A4
:10055000D10531F0239799F461E00CC060E00AC046
:1005600061E087E00E94D20061E088E00E94D20052
:1005700060E00EC087E00E94D20060E005C061E04C
:1005800087E00E94D20061E088E00E94D20061E032
:1005900089E0DF91CF910C94D2008F929F92AF921D
:1005A000BF92CF92DF92EF92FF92809121019091C2
:1005B0002201892B09F499C00E943E014B015C0184
:1005C00080916A0190916B01A0916C01B0916D01D5
:1005D00075016401C81AD90AEA0AFB0A80926A0105
:1005E00090926B01A0926C01B0926D01C114D10484
:1005F00081E0E806F10438F48FEFC8168FE3D806DF
:10060000E104F104A8F080916901811106C0809194
:1006100069018F5F8093690168C0809169018130B1
:1006200009F463C0809169018150809369014CC0D5
:1006300080916901882309F458C080916901823052
:10064000D0F12091210130912201C901880F991F19
:10065000820F931F9695879596958795C816D9060C
:1006600070F0C601880F991F8C0D9D1D969587957A
:10067000969587952817390720F4E2E003C0E0E05B
:1006800001C0E1E020912301309124014091250136
:100690005091260163E971E080E091E00E94BF067D
:1006A000DC01CB018E278093230190932401A0933A
:1006B0002501B0932601809169018F5F80936901C4
:1006C000809169018F3F69F41092220110922101FB
:1006D00080926E0190926F01A0927001B0927101B0
:1006E00004C0D0922201C0922101FF90EF90DF90D0
:1006F000CF90BF90AF909F908F9008951F920F92D0
:100700000FB60F9211242F933F938F939F93AF9324
:10071000BF9380917A0190917B01A0917C01B0916F
:100720007D013091790123E0230F2D3720F40196CC
:10073000A11DB11D05C026E8230F0296A11DB11D04
:100740002093790180937A0190937B01A0937C019F
:10075000B0937D0180917E0190917F01A0918001F5
:10076000B09181010196A11DB11D80937E019093EE
:100770007F01A0938001B0938101BF91AF919F91C0
:100780008F913F912F910F900FBE0F901F90189552
:100790001F920F920FB60F9211242F933F934F93F6
:1007A0005F936F937F938F939F93AF93BF93EF93D9
:1007B000FF93E0912B01F0912C010995FF91EF91AE
:1007C000BF91AF919F918F917F916F915F914F9169
:1007D0003F912F910F900FBE0F901F9018951F9271
:1007E0000F920FB60F9211242F933F934F935F9365
:1007F0006F937F938F939F93AF93BF93EF93FF93E9
:10080000E0912901F0912A010995FF91EF91BF91A3
:10081000AF919F918F917F916F915F914F913F9198
:100820002F910F900FBE0F901F901895CF93DF93CD
:1008300000D000D0CDB7DEB7789484B5826084BD97
:1008400084B5816084BD85B5826085BD85B58160D4
:1008500085BD80916E00816080936E001092810052
:10086000809181008260809381008091810081600D
:1008700080938100809180008160809380008091CE
:10088000B10084608093B1008091B000816080935A
:10089000B00080917A00846080937A0080917A0021
:1008A000826080937A0080917A00816080937A00E0
:1008B00080917A00806880937A001092C10061E094
:1008C00087E00E94020161E088E00E94020161E08D
:1008D00089E00E94020162E085E00E94020160E07E
:1008E00084E00E94020161E086E00E94020160E073
:1008F00086E00E94D20061E083E00E94020160E095
:1009000083E00E94D20083E090E00E948C0283E0AA
:10091000809320010E949D016093640170936501A2
:1009200080936601909367010E94F401C12CD12C41
:100930007601C39492E0892E912CA12CB12C25EC48
:10094000422E2DE9522E2CE1622E21E8722E0DEC62
:1009500012E00E949D012091640130916501409157
:1009600066015091670120563444424F5F4F26176D
:1009700037074807590708F039C060E087E00E9450
:10098000020160E088E00E94020160E089E00E94CC
:10099000020160E085E00E94020160E084E00E94C4
:1009A000020160E086E00E94020160E083E00E94B4
:1009B00002010FB6F894A895809160008861809339
:1009C0006000109260000FBEE89829EA31E0309391
:1009D0002A012093290183B7817F846083BF83B775
:1009E000816083BF889583B78E7F83BF80917701B5
:1009F000909178018230910509F45AC0E4F400978F
:100A0000A1F1019709F0B4C162E082E00E94020105
:100A100010932A0100932901809169008C7F8160E5
:100A200080936900E89A82E090E090937801809347
:100A3000770160E094C18330910509F480C1049787
:100A400009F096C183E090E00E948C0268EE73E0AA
:100A500080E090E00E94630184E090E00E948C02BC
:100A600068EE73E080E090E081C10E94F40184E0D0
:100A70000E94A90033243394892B09F4312C8091EE
:100A80007601381609F474C1332079F08091680139
:100A9000833020F48F5F8093680102C01092680158
:100AA0008091680190E00E948C023092760160C1D2
:100AB0000E94AA01882309F443C03FB6F8940E941B
:100AC000AA01811116C080E090E0DC013FBE2091B8
:100AD0002F0134E0239FF0011124E15DFE4F81835B
:100AE0009283A383B483223048F52F5F20932F0194
:100AF00027C00E943E0160936A0170936B0180934E
:100B00006C0190936D018091690180912301909116
:100B10002401A0912501B091260140922301509219
:100B2000240160922501709226014FEF5FEF5093F0
:100B300022014093210110926901C8CF10922F0128
:100B40008FB7F89420916E0130916F014091700140
:100B50005091710129833A834B835C838FBF0E943C
:100B60003E01DC01CB0129813A814B815C81821BF2
:100B7000930BA40BB50B81329E44A105B10508F47B
:100B800061C08091300190913101A0913201B0910A
:100B900033014091340150913501609136017091DB
:100BA000370184179507A607B70709F049C0409198
:100BB00038015091390160913A0170913B018417DD
:100BC0009507A607B707E1F5ECE3F1E041915191F4
:100BD0006191719184179507A607B70781F0448545
:100BE00055856685778584179507A607B70751F061
:100BF00041E0EC34F40751F782E090E005C080E07A
:100C000090E002C081E090E090932E0180932D014E
:100C10001092300110923101109232011092330182
:100C2000C0923401D0923501E0923601F092370142
:100C30008092380190923901A0923A01B0923B0122
:100C40000E94F4010E949D01AB01BC0120902D0186
:100C500030902E0181E028163104E9F11CF423289C
:100C600059F086C0E3E02E16310409F44EC0F4E0DA
:100C70002F163104D9F07CC0809127019091280172
:100C8000049709F475C04093720150937301609307
:100C900074017093750183E090E00E948C0224E05F
:100CA00030E030932E0120932D0162C080917201BB
:100CB00090917301A0917401B09175018C509E4F79
:100CC000AF4FBF4F84179507A607B70708F050C06E
:100CD00080E090E02DC0809127019091280103973A
:100CE00009F446C0409372015093730160937401FC
:100CF0007093750181E090E00E948C0243E050E027
:100D000050932E0140932D0133C080917201909138
:100D10007301A0917401B09175018C509E4FAF4F3B
:100D2000BF4F84179507A607B70710F582E090E03C
:100D30000E948C02309228012092270119C060E0A5
:100D400082E00E940201E89889EA91E090932A01EA
:100D500080932901109278011092770161E083E07D
:100D60000E94D2006AE070E080E090E00E9463019F
:100D7000E0E0F0E0309709F4ECCD0995E8CDDB0137
:100D80008F939F930E94E306BF91AF91A29F800D26
:100D9000911DA39F900DB29F900D1124089597FB74
:100DA000072E16F4009407D077FD09D00E94EE06B6
:100DB00007FC05D03EF4909581959F4F089570955E
:100DC00061957F4F08950E940207A59F900DB49FE3
:100DD000900DA49F800D911D11240895AA1BBB1B8B
:100DE00051E107C0AA1FBB1FA617B70710F0A61B2B
:100DF000B70B881F991F5A95A9F780959095BC014C
:100E0000CD010895A29FB001B39FC001A39F700DB3
:100E1000811D1124911DB29F700D811D1124911D02
:060E20000895F894FFCFD5
:100E2600FF03FF03FF03FF03FF03FF03FF03FF03AC
:100E3600FF03FF03FF03FF03FF03FF03FF03FF039C
:100E460001FFFFC59D1C810200A901A90102000046
:100E56000000000001000000020000007A3B7AFF5B
:100E66007A3B7AFF7A6AB8337A6AB8337A02B190F3
:0C0E76007A9B0E027A31EFC47ACA4C3627
:00000001FF
